:020000040800F2
:10000000B00C002021380008690500086B050008C5
:100010006F05000873050008770500080000000060
:100020000000000000000000000000007B05000848
:100030007D050008000000007F050008810500081C
:100040003B3800083B3800083B3800083B380008C4
:100050003B3800083B3800088305000817330008C8
:100060003B3800083B3800088D0500083B38000885
:100070003B3800083B3800083B3800083B38000894
:100080003B3800083B3800083B3800083B38000884
:100090003B3800083B3800083B380008970500084B
:1000A0003B3800083B3800083B3800083B38000864
:1000B0006D0600083B3800083B3800083B38000854
:1000C0003B3800083B3800083B3800083B38000844
:1000D0003B380008A1050008ED0500083B38000882
:1000E0003B3800083B3800083B38000800F002F8B5
:1000F00000F062F80AA090E8000C82448344AAF160
:100100000107DA4501D100F057F8AFF2090EBAE85D
:100110000F0013F0010F18BFFB1A43F0010318473B
:10012000D4470000F44700000A444FF0000C10F8D8
:10013000013B13F0070408BF10F8014B1D1108BF65
:1001400010F8015B641E05D010F8016B641E01F805
:10015000016BF9D113F0080F1EBF10F8014BAD1C55
:100160000C1B09D16D1E58BF01F801CBFAD505E073
:1001700014F8016B01F8016B6D1EF9D59142D6D3CD
:10018000704700000023002400250026103A28BFF5
:1001900078C1FBD8520728BF30C148BF0B607047F9
:1001A000642903F0A983732903F03B85002070477D
:1001B0001FB51FBD10B510BD03F04EFD1146FFF772
:1001C000F7FF00F009F803F06CFD03B4FFF7F2FF4E
:1001D00003BC02F0DDFA000098B0482002F04AFAB1
:1001E00002F0ECFB02F0ACFA02F084FB4FF4165084
:1001F00002F0DDFA4FF4165002F02CFB03F042F847
:1002000003F02AF803F088F9002140F2E73002F009
:10021000D7FF40F2E731AE4801F030FF02F056FC64
:1002200002F04EFD02F01AFDAAA20021084602F0DB
:10023000D8FDACA20221002002F0D3FDADA2042122
:10024000002002F0CEFDABA20621002002F0C9FD85
:1002500002F0A2FE02F002FD9EA20021084602F07A
:10026000C0FDA4A20221002002F0BBFDA1A2042136
:10027000002002F0B6FD9FA20621002002F0B1FD91
:1002800005209D4908710020C87048700120087041
:100290004FF4FA70C880002088709849486016E1D1
:1002A0000A2002F003FA96480068012809D1701C60
:1002B00086B20027032E0EDD002601208E49C8706D
:1002C00009E00026781C87B2B7F5967F03DD00278A
:1002D00000208949C87003F08AF80521002003F046
:1002E00073F9C4B284480079A0420CDD08F1010022
:1002F0001FFA80F84FF00009B8F11E0F14DD01203D
:100300007D49487010E07C4800791430A0420BDA37
:1003100009F101001FFA80F94FF00008B9F11E0F32
:1003200002DD00207449487073480078C8B37248F1
:100330004078B8B37048C07808B300206F4948606F
:10034000032094FBF0F085B2092D00DD092505EBB3
:10035000C50000EB05104FF6FF7202EA80015C4811
:1003600001F08CFE05EBC50000EB051040F2E73113
:10037000A1EB80006049C8800120887028E05F48B8
:10038000406841F27071884222D900205B49486080
:1003900040F2E7314E4801F071FE00205649887066
:1003A00016E009E0FFE740F2E731494801F066FE58
:1003B0000020514988700BE04F48C08840F2E73276
:1003C000101A81B2424801F059FE01204A49887052
:1003D0004C48007820B100204A49087002F049FBDF
:1003E00002F0C5F990B9142002F060F902F0BFF9EB
:1003F00060B94148C088642805DB3F48C08864383C
:100400003D49C88002E000203B49C88002F0B5F9B0
:10041000A0B9142002F04AF902F0AFF970B93648D9
:10042000C088B0F5617F05DA3348C088643032494E
:10043000C88003E040F2E7302F49C8802E4800789A
:1004400020B131A10EA803F019FA03E031A10EA8E2
:1004500003F014FA224632A109A803F00FFA264845
:10046000C28832A104A803F009FA1AA200210846A2
:1004700002F0B7FC0EAA0221002002F0B2FC09AA89
:100480000421002002F0ADFC04AA0621002002F0A5
:10049000A8FC1A48806842F21071884217D90020DF
:1004A0001649886024A125A002F04CFD1248C0889E
:1004B0001149C978CDE9001402900F488378027879
:1004C00024A113A803F0DAF913A802F093FDE7E6DC
:1004D000002C0140202020536D617274204C454453
:1004E0002000000020202057616974696E672E2E5D
:1004F0002E20000000000000280400206C040020D2
:10050000100121427C0400204155544F3A204F4EA7
:10051000202000004155544F3A204F4646202000ED
:100520004144433A202564200000000050574D3AD2
:1005300020256420200000006F6B000041542B53E5
:1005400055423D736C6465762F3132333435362C29
:10055000300D0A005525642564256425302E33644A
:1005600025302E3364000000704700BFFEE700BF57
:10057000FEE700BFFEE700BFFEE770477047704729
:10058000704710B5012002F06CF810BD10B51020B6
:1005900002F067F810BD10B5202002F062F810BD1F
:1005A00010B540F22551534800F040FC01281CD101
:1005B000002051498870012048704E4800F0B6FB79
:1005C000C1B24D488288801D8154801F8088401CA4
:1005D0004949888008468088C82801DB0020888037
:1005E00040F22551434800F04BFC10BD10B540F2DD
:1005F0002551424800F01AFC012836D1002040491C
:10060000887008464078B8B9002088803B4800F0E0
:100610008DFBC1B23A488288801D8154801F818839
:10062000801D405C232803D000203549888017E0D6
:1006300001203349487013E031488088401C30491C
:1006400088802E4800F072FBC1B22D488288801D40
:100650008154801F8088C82802DB002028498880B8
:1006600040F22551254800F00BFC10BD10B50121CA
:10067000880701F034FD00283BD022480068401C68
:100680002049086008468068401C88600846406829
:10069000401C486018484078012811D116488078DD
:1006A000401C1549887008468078322808DB0020F5
:1006B000887002F0B1FC01200F49087000204870DA
:1006C0000F48407801280CD10D488078401C0C4917
:1006D000887008468078322803DB0020887001206B
:1006E00008700121880701F00BFD0121880701F046
:1006F00007FD10BD003801407C040020004400408C
:100700004A0500206C040020DF48006840F001002A
:10071000DD49086008464068DC490840DA4948601D
:1007200008460068DA490840D7490860084600686A
:1007300020F4802008600846406820F4FE004860ED
:100740004FF41F0088607047CF49096821F4803159
:10075000CD4A11601146096821F480211160B0F57D
:10076000803F03D0B0F5802F0ED106E0C64909685E
:1007700041F48031C44A116007E0C349096841F47B
:10078000A021C14A116000E000BF00BF704710B552
:1007900001460022002300204A11012A02D1BA4C4E
:1007A000236806E0022A02D1B74C236A01E0B64C66
:1007B000636A01F01F02012494401C400CB1012027
:1007C00000E0002010BD38B5002000900024002576
:1007D00000BF3120FFF7DBFF05460098401C00906A
:1007E0000098B0F5A06F01D0002DF2D03120FFF7B6
:1007F000CEFF08B1012400E00024204638BD0146A8
:100800000020A14A106820F0F80040EAC100106002
:100810007047A04908607047024600209A4B58680C
:1008200020F47C1042EA01031843974B586070474C
:1008300098490866704701460020934A506820F0A6
:1008400003000843506070478F48406800F00C0078
:100850007047014600208C4A506820F0F0000843A1
:100860005060704701460020874A506820F4E060DD
:1008700008435060704701460020834A506820F4C6
:10088000605040EAC1005060704729B17E4A527AF8
:1008900002437D4B5A7204E07B4A527A82437A4B80
:1008A0005A7270477B49D831086070470146002072
:1008B000754A506820F4404008435060704700215A
:1008C000714A20321170704A82F82010012802D03B
:1008D00004280AD104E001216B4A2032117005E09E
:1008E0000521694A2032117000E000BF00BF704747
:1008F0006949086070476449096A0143624A1162A4
:100900007047654944390860704730B500210022BE
:10091000002400235C4D6D6805F00C0121B1042911
:1009200005D0082923D105E05C4D056022E05B4D30
:1009300005601FE0544D6D6805F47012524D6D68EE
:1009400005F48034022505EB92421CB9544D554301
:1009500005600BE04C4D6D6805F400351DB1504D40
:100960005543056002E04D4D5543056002E04B4D97
:10097000056000BF00BF444D6D6805F0F001090936
:10098000484D6B5C0568DD4045603F4D6D6805F482
:10099000E061090A434D6B5C4568DD4085603A4D76
:1009A0006D6805F46051C90A3E4D6B5C4568DD40D9
:1009B000C560354D6D6805F44041890B3A4D6B5C5F
:1009C000C568B5FBF3F5056130BD29B12E4A526902
:1009D00002432D4B5A6104E02B4A526982432A4B51
:1009E0005A61704729B1284A92690243264B9A619D
:1009F00004E0254A92698243234B9A61704729B1EA
:100A0000214AD2690243204BDA6104E01E4AD269CE
:100A100082431D4BDA61704729B11B4AD2680243F9
:100A2000194BDA6004E0184AD2688243164BDA6048
:100A3000704729B1144A12690243134B1A6104E04A
:100A4000114A12698243104B1A61704712494039AA
:100A5000086070470F49C86470470B49C8717047F8
:100A60000948406A40F08070074948627047014673
:100A70000020054A92680A400AB1012000E00020E7
:100A80007047014988727047001002400000FFF86B
:100A9000FFFFF6FE000042428004424200127A004C
:100AA00000093D00300400204004002010B5044639
:100AB000FB48844209D101218803FFF7ADFF0021E3
:100AC0004FF48040FFF7A8FF32E0F648844209D196
:100AD00001214804FFF7ADFF00214FF40030FFF77C
:100AE000A8FF25E0F048844209D101218804FFF7DE
:100AF000A0FF00214FF48020FFF79BFF18E0EB4898
:100B0000844209D10121C804FFF793FF00214FF46B
:100B10000020FFF78EFF0BE0E548844208D1012159
:100B20000805FFF786FF00214FF48010FFF781FFD3
:100B300010BD2DE9F04786B005460E460024A246BA
:100B400000BFA1460027B08900B100BF2F462C8A04
:100B50004CF6FF700440F08804432C82AC894EF6BA
:100B6000F3100440B0883189084371890843044375
:100B7000AC81AC8A4FF6FF400440B0890443AC829C
:100B800001A8FFF7C2FEC648874202D1DDF810A0D7
:100B900001E0DDF80CA0A88900F4004040B10AEBA8
:100BA000CA0000EB0A1031684900B0FBF1F807E019
:100BB0000AEBCA0000EB0A1031688900B0FBF1F8BB
:100BC0006420B8FBF0F004012009642101FB1089C6
:100BD000A88900F4004040B1322000EBC900B0FB0E
:100BE000F1F000F00700044308E0322000EB0910A8
:100BF0006421B0FBF1F000F00F0004432C8106B03B
:100C0000BDE8F0874FF41651016000218180C1805A
:100C100001810C21418100218181704710B502467C
:100C20000020108A4FF2FF0318400B884C882343A2
:100C30008C882343CC8823431843108210BD0021A5
:100C4000018041808180C180704721B1828942F456
:100C50000052828104E082894DF6FF731A4082813E
:100C60007047F0B50346002400260025002040F61A
:100C70006A17B94200D100BF1846C1F3421401F00F
:100C80001F06012707FA06F5012C01D10C3004E0FC
:100C9000022C01D1103000E014301AB107682F4344
:100CA000076002E00768AF430760F0BD1AB1838AAE
:100CB0000B43838202E0838A8B4383827047028ADC
:100CC0004FF6F0731A400282028A0A43028270478A
:100CD00082894FF2FF731A40828182890A4382819E
:100CE000704721B1828942F00202828104E0828948
:100CF0004FF6FD731A4082817047028A4FF6DF7308
:100D00001A400282028A0A430282704721B1028A93
:100D100042F48042028204E0028A4BF6FF731A40DA
:100D200002827047C1F308028280704701468888BA
:100D3000C0F308007047818941F00101818170474B
:100D4000028BD2B20283028B42EA012202837047F5
:100D5000028B02F47F420283028B0A4302837047B4
:100D600021B1828A42F02002828204E0828A4FF618
:100D7000DF731A408282704721B1828A42F01002EA
:100D8000828204E0828A4FF6EF731A4082827047B3
:100D900021B1828A42F00802828204E0828A4FF600
:100DA000F7731A408282704721B1828942F400426F
:100DB000828103E08289C2F30E028281704721B1F1
:100DC000828A42F40062828204E0828A4FF2FF73D8
:100DD0001A4082827047828A4FF6FB731A408282E1
:100DE000828A0A438282704721B1828A42F00202DB
:100DF000828204E0828A4FF6FD731A408282704735
:100E000002460020B1F5007F00D100BF13880B40DF
:100E10000BB1012000E00020704701F40072B2F530
:100E2000007F00D100BFCA430280704770B5024600
:100E3000002400230025002040F66A16B14200D1AC
:100E400000BFC1F3421501F01F03012606FA03F3A8
:100E5000012D02D19689334006E0022D02D1168A77
:100E6000334001E0968A33400C12012606FA04F45E
:100E70001688344013B10CB1012000E0002070BD91
:100E800010B50022002340F66A14A14200D100BF31
:100E90000A1201249440A3B2DC43048010BD000078
:100EA000003801400044004000480040004C004031
:100EB0000050004031490143314A1160704770B51C
:100EC000002100230F22C47804B32D4C246804F4BD
:100ED000E064C4F5E064210AC1F10403CA40447827
:100EE00004FA03F18478144021430901254C067863
:100EF000A155047804F01F050124AC4005786D115C
:100F0000AD0005F1E025C5F8004109E0047804F0E2
:100F10001F050124AC401C4D0678761145F826408B
:100F200070BD1A4A0A400243154B1B1F1A607047D6
:100F300039B1134A121D12680243114B1B1D1A606E
:100F400006E00F4A121D126882430D4B1B1D1A60EA
:100F50007047042808D14FF0E021096941F00401ED
:100F60004FF0E022116107E04FF0E021096921F024
:100F700004014FF0E0221161704700000000FA0503
:100F80000CED00E000E400E080E100E080FFFF1FE6
:100F900010B50446CC48844208D101210420FFF753
:100FA0003BFD00210420FFF737FD46E0C74884429F
:100FB00008D101210820FFF72FFD00210820FFF7AD
:100FC0002BFD3AE0C248844208D101211020FFF7EE
:100FD00023FD00211020FFF71FFD2EE0BD488442B5
:100FE00008D101212020FFF717FD00212020FFF765
:100FF00013FD22E0B848844208D101214020FFF7C8
:101000000BFD00214020FFF707FD16E0B3488442A6
:1010100008D101218020FFF7FFFC00218020FFF78D
:10102000FBFC0AE0AE48844207D101218015FFF79E
:10103000F3FC0021A015FFF7EFFC10BD10B5012156
:101040000846FFF7E9FC00210120FFF7E5FC10BD91
:101050002DE9F0410246002500260020002300244F
:10106000002791F803C00CF00F0591F803C00CF0B5
:10107000100CBCF1000F03D091F802C04CEA05053A
:1010800091F800C0BCF1000F31D0146800202BE0B3
:101090004FF0010C0CFA00F3B1F800C00CEA0306A3
:1010A0009E4220D183004FF00F0C0CFA03F7BC4393
:1010B00005FA03FC4CEA040491F803C0BCF1280FC4
:1010C00006D14FF0010C0CFA00FCC2F814C00AE083
:1010D00091F803C0BCF1480F05D14FF0010C0CFA98
:1010E00000FCC2F810C0401C0828D1D31460B1F82D
:1010F00000C0BCF1FF0F34DD546800202EE000F189
:10110000080C4FF0010808FA0CF3B1F800C00CEA23
:1011100003069E4221D183004FF00F0C0CFA03F717
:10112000BC4305FA03FC4CEA040491F803C0BCF18B
:10113000280F05D100F1080C08FA0CF8C2F8148049
:1011400091F803C0BCF1480F07D100F1080C4FF033
:10115000010808FA0CF8C2F81080401C0828CED309
:101160005460BDE8F0814FF6FF710180022181706B
:101170000421C17070470246002093680B400BB1F8
:10118000012000E0002070470146886880B2704767
:1011900002460020D3680B400BB1012000E0002084
:1011A00070470146C86880B270470161704741616D
:1011B00070470AB1016100E041617047C16070474A
:1011C0004FF480320A43826181618261826982695F
:1011D000704702460020434B18684FF68073184052
:1011E00040EA021008433F4B186070473E49C8610F
:1011F0007047F0B50A46002300240021002500F0C6
:101200000046B6F1004F02D1364EF16901E0354E8D
:101210007168C0F3034583B200F44016B6F5401F71
:1012200008D121F070612F4E766826F070662D4F40
:101230007E6012E000F48016B6F5801F06D103260A
:1012400006FA05F4A14341F0706106E0460D36014F
:1012500003FA06F6B14341F0706122B1460D360142
:1012600003FA06F6314300F00046B6F1004F02D112
:101270001C4EF16101E01B4E7160F0BD30B50022E3
:101280008B071C0F0F2303FA04F2164B08338C1044
:1012900053F824309343134C08348D1044F8253010
:1012A00023468C1053F824308C07240F00FA04F4E2
:1012B00023430C4C08348D1044F8253030BD0A49C6
:1012C000DC3108607047000000080140000C01405C
:1012D000001001400014014000180140001C0140B2
:1012E00000200140000001400000204210B50446EB
:1012F000FE48844208D10121C014FFF78DFB002174
:10130000E014FFF789FBC4E0B4F1804F08D101215C
:101310000846FFF78EFB00210120FFF78AFBB8E0AB
:10132000F348844208D101210220FFF782FB00210B
:101330000220FFF77EFBACE0EE48844208D1012199
:101340000420FFF776FB00210420FFF772FBA0E0EA
:10135000E948844208D101210820FFF76AFB0021F7
:101360000820FFF766FB94E0E448844208D101219D
:101370001020FFF75EFB00211020FFF75AFB88E0EA
:10138000DF48844208D101212020FFF752FB0021D1
:101390002020FFF74EFB7CE0DA48844208D101218F
:1013A0004014FFF739FB00216014FFF735FB70E0B4
:1013B000D548844209D10121C804FFF72DFB002143
:1013C0004FF40020FFF728FB63E0D048844209D1A6
:1013D00001210805FFF720FB00214FF48010FFF7E3
:1013E0001BFB56E0CA48844209D101214805FFF79A
:1013F00013FB00214FF40010FFF70EFB49E0C54836
:10140000844208D101214020FFF713FB0021402036
:10141000FFF70FFB3DE0C048844208D10121802046
:10142000FFF707FB00218020FFF703FB31E0BB48FB
:10143000844208D101218015FFF7FBFA0021A01595
:10144000FFF7F7FA25E0B648844209D101210804E4
:10145000FFF7E2FA00214FF48030FFF7DDFA18E0E1
:10146000B048844209D101214804FFF7D5FA002190
:101470004FF40030FFF7D0FA0BE0AB48844208D1BC
:1014800001218804FFF7C8FA00214FF48020FFF7FC
:10149000C3FA10BD00220288944B98420ED0994B9B
:1014A00098420BD0B0F1804F08D0914B984205D0B4
:1014B000904B984202D0904B984204D14FF68F73D4
:1014C0001A404B881A438D4B984207D08C4B984258
:1014D00004D04FF6FF431A40CB881A4302808B8812
:1014E00083850B880385814B98420BD0854B9842AE
:1014F00008D08B4B984205D08A4B984202D08A4B39
:10150000984201D10B7A038601238382704770B51C
:10151000002400220023058C4FF6FE76354005841A
:10152000028C8388048B4FF68F752C40B51E2C409F
:101530000D882C43751E2A400D892A434D882A4365
:101540006A4DA8420BD06F4DA84208D0744DA842F6
:1015500005D0744DA84202D0734DA84213D14FF666
:10156000F7752A404D892A434FF6FB752A408D882E
:101570002A434FF6FF652B404FF6FF552B408D89D0
:101580002B43CD892B4383800483CD8885860284B9
:1015900070BD70B5002400220023058C4FF6EF7655
:1015A00035400584028C8388048B48F6FF752C40F7
:1015B0004FF6FF452C400D884FF6FF7606EA0525CD
:1015C0002C434FF6DF752A400D8906EA05152A439C
:1015D0004D8806EA05152A43444DA84202D0494DDC
:1015E000A8421DD14FF67F752A404D894FF6FF76F0
:1015F00006EA05152A434FF6BF752A408D8806EA8C
:1016000005152A434FF6FF352B404FF2FF752B404F
:101610008D8906EA85052B43CD8906EA85052B438E
:1016200083800483CD880587028470BD70B5002453
:1016300000220023058C4FF6FF6635400584028C9E
:101640008388848B4FF68F752C404FF6FC752C40A9
:101650000D882C434FF6FF552A400D894FF6FF7633
:1016600006EA05252A434D8806EA05252A431F4D2B
:10167000A84202D0234DA8421DD14FF2FF752A4047
:101680004D894FF6FF7606EA05252A434FF6FF35CA
:101690002A408D8806EA05252A434EF6FF752B4021
:1016A0004DF6FF752B408D8906EA05152B43CD8934
:1016B00006EA05152B4383808483CD8885870284C1
:1016C00070BD70B5002200230024058C4EF6FF7615
:1016D00035400584038C8488828B48F6FF752A4048
:1016E0004FF6FF452A400D8820E00000002C014005
:1016F0000004004000080040000C004000100040C2
:101700000014004000340140004C014000500140F2
:101710000054014000180040001C00400020004020
:101720000040014000440140004801404FF6FF7670
:1017300006EA05252A434DF6FF752B400D8906EA7A
:1017400005352B434D8806EA05352B43FA4DA84253
:1017500002D0FA4DA84208D14BF6FF752C408D8976
:101760004FF6FF7606EA85152C4384808283CD8868
:10177000A0F84050038470BD828B4FF2FF331A40B3
:101780008283828B4FF6FF7303EA01231A4382831D
:101790007047F0B50C461546002200210026078C44
:1017A0004EF6FF7C07EA0C070784828B018C4FF60C
:1017B000FF7707EA043640F6FF473A404FF6FF77D7
:1017C00007EA05273A434FF6FF7707EA03373A431C
:1017D000D94FB8420ED0D94FB8420BD0B0F1804F9C
:1017E00008D0D74FB84205D0D64FB84202D0D64F16
:1017F000B84206D14DF6FF77394046F48057394359
:1018000005E047F6FF57394044F480573943828357
:101810000184F0BD828B4FF6F3731A408283828B72
:101820000A4382837047F0B50C461546002200211A
:101830000026078C4FF6FF6C07EA0C070784828BA3
:10184000018C4FF6FF7707EA04264FF60C773A40F3
:101850004FF6FF7707EA03172F433A43B64FB842D4
:101860000ED0B64FB8420BD0B0F1804F08D0B44F75
:10187000B84205D0B34FB84202D0B34FB84206D1F8
:101880004FF6FF57394046F48077394305E04FF271
:10189000FF57394044F48077394382830184F0BD97
:1018A000028B4FF2FF331A400283028B4FF6FF7315
:1018B00003EA01231A4302837047F0B50C4615462C
:1018C000002200210026078C4FF6EF7C07EA0C0768
:1018D0000784028B018C4FF6FF7707EA041640F667
:1018E000FF473A404FF6FF7707EA03373A434FF690
:1018F000FF7707EA05273A438F4FB8420ED08F4F44
:10190000B8420BD0B0F1804F08D08D4FB84205D00F
:101910008C4FB84202D08C4FB84206D14FF6DF77D9
:10192000394046F01007394305E04FF65F773940FC
:1019300044F01007394302830184F0BD028B4FF657
:10194000F3731A400283028B0A4302837047F0B597
:101950000C46154600220021068C4FF6FE773E40CD
:101960000684028B018C4FF60C7632407E1C06EA10
:1019700003162E433243704EB0420ED06F4EB0422B
:101980000BD0B0F1804F08D06D4EB04205D06D4EF7
:10199000B04202D06C4EB04206D14FF6FD763140D7
:1019A00044F00106314305E04FF6F576314044F04E
:1019B0000106314302830184F0BD70B505460C4633
:1019C0005D4885420ED05D4885420BD0B5F1804F11
:1019D00008D05B48854205D05A48854202D05A4813
:1019E000854200D100E000BF208850B92389A28839
:1019F00061882846FFF7ABFFE1882846FFF79EFF86
:101A000025E0208804280AD12389A28861882846F5
:101A1000FFF753FFE1882846FFF742FF17E02088D1
:101A200008280AD12389A28861882846FFF7FBFE8F
:101A3000E1882846FFF7EEFE09E02389A288618845
:101A40002846FFF7A6FEE1882846FFF795FE70BD01
:101A50002DE9F04105460C4600260127608808B9AB
:101A6000022600E00026A088012801D1022700E01C
:101A700001272088A0B92389A28861882846FFF71A
:101A800066FFE1882846FFF759FF23893A46314629
:101A90002846FFF712FFE1882846FFF701FF13E011
:101AA0002389A28861882846FFF707FFE188284636
:101AB000FFF7F6FE23893A4631462846FFF747FFEF
:101AC000E1882846FFF73AFFBDE8F0810A884B8895
:101AD0001A438B881A43CB881A430B891A434B89C4
:101AE0001A438B891A43A0F8442070474FF6FF71C0
:101AF000818000210180C1804180017270470021F6
:101B0000018041808180C180018141818181C181C9
:101B10007047002101804180012181800021C18026
:101B2000018170470021018041808180C180018155
:101B30004181818170470000002C01400034014048
:101B40000004004000080040000C004021B1028861
:101B500042F00102028004E002884FF6FE731A4050
:101B60000280704731B1B0F8442042F40042A0F83E
:101B7000442005E0B0F84420C2F30E02A0F844204F
:101B800070471AB183890B43838102E083898B43B9
:101B9000838170478182704741EA0203A0F8483090
:101BA00070471AB183890B43838102E083898B4399
:101BB0008381704701894FF6F872114001817047A7
:101BC0000A46002101894FF68F73194011430181A4
:101BD000704730B504460D4629462046FFF7F0FF12
:101BE000208940F00700208130BD2DE9F0410446F6
:101BF0000D4616461F46602D06D13B460122314652
:101C00002046FFF75AFE05E03B46012231462046BA
:101C1000FFF79DFE29462046FFF7D2FF208940F0BE
:101C200007002081BDE8F08130B50C460021018914
:101C3000C9B24FF6FF7505EA03251543254329432D
:101C4000018130BD2DE9F04105460E461746984604
:101C5000002443463A4631462846FFF7E5FF2C89E3
:101C60004FF6F870044044F007044FF68F700440BC
:101C700044F070042C81BDE8F081F0B504460D46B7
:101C800016461F463B46324629462046FFF7CCFF04
:101C9000208940F480402081F0BD01858282704718
:101CA0000A46002101884FF68F73194011430180C5
:101CB0007047F0B50C4615461E4600210022002351
:101CC0000189028B038C4FF6F877394021434FF698
:101CD000FC473A4040F201173A434FF6DD773B406C
:101CE0004FF6FF7707EA06172F433B430181028334
:101CF0000384F0BD0A460021018B4FF68F73194013
:101D00001143018370470A460021018B48F6FF7397
:101D100019404FF6FF7303EA02231943018370470A
:101D20000A460021818B4FF68F731940114381833E
:101D300070470A460021818B48F6FF7319404FF621
:101D4000FF7303EA022319438183704721B102889C
:101D500042F08002028004E002884FF67F731A404E
:101D60000280704721B1828842F00402828004E040
:101D700082884FF6FB731A408280704721B18288B7
:101D800042F00802828004E082884FF6F7731A401E
:101D90008280704721B1828842F00102828004E093
:101DA00082884FF6FE731A40828070470A460021EF
:101DB000018B4FF6F77319401143018370470A46B0
:101DC0000021018B4FF2FF7319404FF6FF7303EAB6
:101DD00002231943018370470A460021818B4FF685
:101DE000F77319401143818370470A460021818BA4
:101DF0004FF2FF7319404FF6FF7303EA02231943B2
:101E0000818370470A460021018B4FF6FB7319400E
:101E10001143018370470A460021018B4FF6FF33BF
:101E200019404FF6FF7303EA0223194301837047F9
:101E30000A460021818B4FF6FB73194011438183C1
:101E400070470A460021818B4FF6FF3319404FF649
:101E5000FF7303EA02231943818370470A46002176
:101E6000018B4FF67F7319401143018370470A4677
:101E70000021018BC1F30E014FF6FF7303EA022329
:101E80001943018370470A460021818B4FF67F7307
:101E900019401143818370470A460021818BC1F3A9
:101EA0000E014FF6FF7303EA022319438183704743
:101EB0000A460021018C4FF6FD731940114301843D
:101EC00070470A460021018C4FF6F7731940114301
:101ED000018470470A460021018C4FF6DF731940D8
:101EE0004FF6FF7303EA02131943018470470A4651
:101EF0000021018C4FF67F7319404FF6FF7303EA00
:101F000002131943018470470A460021018C4FF6E1
:101F1000FF5319404FF6FF7303EA0223194301846C
:101F200070470A460021018C4FF2FF7319404FF6AB
:101F3000FF7303EA02231943018470470A46002114
:101F4000018C4DF6FF7319404FF6FF7303EA02331D
:101F500019430184704730B5002301248C40A3B29B
:101F6000048C9C430484048C02FA01F5ADB22C432A
:101F7000048430BD30B5002304248C40A3B2048C0B
:101F80009C430484048C02FA01F5ADB22C43048412
:101F900030BD70B5034600200024184618300125D6
:101FA0008D40ACB21D8CA5431D8409B1082909D10F
:101FB00000EB6100056825F07005056005681543B4
:101FC00005600EE00D1FC5F34E052844056825F495
:101FD000E045056005684FF6FF7606EA02263543C0
:101FE000056070BD21B1028842F00202028004E067
:101FF00002884FF6FD731A400280704721B10288B3
:1020000042F00402028004E002884FF6FB731A409B
:102010000280704721B1828842F08002828004E011
:1020200082884FF67F731A408280704702884FF68D
:10203000F7731A40028002880A4302807047828840
:102040004FF68F731A40828082880A4382807047DD
:1020500002894FF6F8731A40028102890A4302810D
:10206000704702894FF67F731A40028102890A4342
:1020700002817047818470478185704781867047EF
:102080000187704781877047A0F840107047028829
:102090004FF6FF431A40028002880A4302807047CD
:1020A0000146888E70470146088F70470146888F29
:1020B00070470146B1F8400070470146888C704770
:1020C0000146088D704702460020138A0B400BB171
:1020D000012000E000207047CA430282704730B5FB
:1020E0000246002000230024158A05EA0103958991
:1020F00005EA010413B10CB1012000E0002030BD5D
:10210000CA4302827047000010B50446FA48844270
:1021100008D101214015FEF77FFC00216015FEF774
:102120007BFC17E0F548844208D101210015FEF739
:1021300073FC00212015FEF76FFC0BE0F048844291
:1021400008D10121C803FEF767FC00214FF40040CD
:10215000FEF762FC10BD30B5024600200023506837
:10216000E84C20400D790C6844EA05242043506077
:102170009068E54C2040D1E902542C434D7944EA63
:10218000450420439060D06A20F470000C7C641EEB
:10219000E4B2234340EA0350D06230BD0021016025
:1021A000017141718160C16001210174704721B1E9
:1021B000826842F00102826003E0826822F001023C
:1021C0008260704721B1826842F48072826003E0CD
:1021D000826822F480728260704710B50023CBB20F
:1021E0001AB144681C43446002E044689C43446064
:1021F00010BD816841F008018160704701460020F0
:102200008A6802F008020AB1012000E0002070474D
:10221000816841F0040181607047014600208A68AE
:1022200002F004020AB1012000E00020704721B151
:10223000826842F4A002826003E0826822F4A00275
:1022400082607047014600208A6802F480020AB169
:10225000012000E00020704710B50A46002100234D
:10226000416821F46041531E41EA4331416010BD91
:1022700021B1426842F40062426003E0426822F405
:10228000006242607047F0B504460D460020002110
:10229000092D11DDE068A5F10A0606EB46070726C1
:1022A00006FA07F18843A5F10A0606EB460603FA8B
:1022B00006F10843E0600CE0206905EB45070726BE
:1022C00006FA07F1884305EB450603FA06F10843D1
:1022D0002061072A0FDA606B561E06EB86071F2661
:1022E00006FA07F18843561E06EB860605FA06F144
:1022F0000843606322E00D2A0FDA206BD61F06EB3D
:1023000086071F2606FA07F18843D61F06EB8606C6
:1023100005FA06F10843206310E0E06AA2F10D0619
:1023200006EB86071F2606FA07F18843A2F10D0681
:1023300006EB860605FA06F10843E062F0BD21B11E
:10234000826842F48012826003E0826822F4801284
:10235000826070470146C86C80B2704766484C3056
:102360000068704721B1426842F48062426003E035
:10237000426822F480624260704721B1426842F4B0
:102380008052426003E0426822F48052426070470B
:102390000A460021816821F4E041114381607047C1
:1023A00021B1826842F40042826003E0826822F434
:1023B00000428260704721B1826842F4021282605A
:1023C00003E0826822F40212826070470146002016
:1023D0008A6802F400120AB1012000E00020704770
:1023E000F0B504461546002000220026092911DD1B
:1023F000E068A1F10A0707EB470C072707FA0CF280
:102400009043A1F10A0707EB470703FA07F21043CD
:10241000E0600CE0206901EB410C072707FA0CF2A1
:10242000904301EB410703FA07F210432061A06BD0
:10243000C0F30156EF1C06F1010CA7EB0C0707EBEC
:10244000870C1F2707FA0CF29043EF1C06F1010CD2
:10245000A7EB0C0707EB870701FA07F21043A0630D
:10246000F0BD10B50A4600210023816B21F4401114
:10247000531E41EA0351816310BD08B50023009348
:102480000090009B0B440093009B1A6008BD08B5A8
:10249000024600200090009201F12800009B1844A1
:1024A00000900098006880B208BD0A46002141688B
:1024B000164B194011434160704741628262704778
:1024C0000A460021416821F01F0111434160704715
:1024D00040B109490831096841F40001064A08324F
:1024E000116007E004490831096821F40001024A3B
:1024F00008321160704700000024014000280140AC
:10250000003C0140FFFEF0FFFDF7F1FFFFFD3FFF44
:102510000246002013680B400BB1012000E00020B0
:102520007047CA430260704770B50246002000231E
:1025300000240B125568CEB205EA060415681D404A
:1025400015B10CB1012000E0002070BD00220A127C
:10255000D343036070470000002044490860091D10
:102560000860091D0860091D086041483F49143191
:102570000860704700213D498279002A3AD00A4616
:10258000126803689A430B461A600A1D12680368B2
:102590009A430B1D1A60027911440A6803681A43B2
:1025A0000A60324A0832126803689A432F4B083394
:1025B0001A601A1D126803689A432C4B0C331A6078
:1025C0004279102A0ED11A1F126803681A43274B4A
:1025D00008331A601A1D126803681A43234B0C3320
:1025E0001A600DE02149427911440A6803681A43D0
:1025F0000A6005E0027911440A6803689A430A6098
:1026000070470021016001710C214171002181712D
:1026100070471649103109680143144A103211609D
:10262000704701460020114A143212680A400AB16C
:10263000012000E0002070470C4914310860704709
:10264000014600200022094B1B6803EA0102074BE8
:1026500014331B680B4013B10AB1012000E00020C5
:1026600070470249143108607047000000040140BF
:10267000FFFF0F004FF0E021096921F004014FF046
:10268000E0221161C21700EB5272C2F3C7022A4B5B
:102690001A701946097801EB4102C2EBC1114FF6DD
:1026A000FF7202EAC101254A118070470146234AA0
:1026B00012884A434FF0E0235A6100229A610122B6
:1026C0001A6100BF4FF0E022106900F001021AB158
:1026D00000F48032002AF5D000224FF0E0231A6186
:1026E0009A6170470146144A12784A434FF0E0233A
:1026F0005A6100229A6101221A6100BF4FF0E02264
:10270000106900F001021AB100F48032002AF5D0FD
:1027100000224FF0E0231A619A61704730B50446F9
:10272000002505E04FF47A70FFF7C0FF681C85B202
:10273000A542F7D330BD0000440400204604002029
:1027400008B501210920FEF74DF901210E48FEF7D9
:1027500050FD04208DF8030003208DF8020018209E
:10276000ADF8000069460948FEF772FC08BD10B5D7
:1027700008210648FEF7FFFC10BD10B510210348E4
:10278000FEF7F9FC10BD000000023000000C014013
:10279000014600BF704700BFC74A128802F04002DE
:1027A000002AF9D0C2B2C44B1B1D1A80704710B565
:1027B00086B0044601210420FEF714F901218803A4
:1027C000FEF710F918208DF817004FF40070ADF8DF
:1027D000140003208DF8160005A9B848FEF738FC50
:1027E00004208DF817000002ADF8140003208DF8C6
:1027F000160005A9B148FEF72BFC01940020ADF8A6
:1028000010000C20ADF80E000020ADF80C00ADF863
:102810000A00ADF8080001A9A948FEF78AF90121CC
:10282000A748FEF712FA012240F22551A448FEF70C
:1028300018FA25208DF8000001208DF803000020F3
:102840008DF8010002208DF802006846FEF737FB84
:1028500006B010BD10B586B0044601210420FEF775
:10286000C1F801214804FEF7CAF818208DF81700B6
:102870000420ADF8140003208DF8160005A98F4838
:10288000FEF7E6FB04208DF817000820ADF81400D1
:1028900003208DF8160005A98848FEF7D9FB01949E
:1028A0000020ADF810000C20ADF80E000020ADF8AF
:1028B0000C00ADF80A00ADF8080001A97E48FEF74B
:1028C00038F901217C48FEF7C0F9012240F2255178
:1028D0007948FEF7C6F926208DF8000001208DF812
:1028E00003008DF801008DF802006846FEF7E7FA54
:1028F00006B010BD1FB501210846FEF780F8012182
:102900000420FEF76FF80220ADF8000010208DF8CB
:10291000030003208DF8020069466848FEF798FB23
:1029200040F26710ADF80800C720ADF804000020A1
:10293000ADF80A00ADF8060001A94FF08040FEF79F
:10294000A9FD01218807FFF7C7FB00214FF0804058
:10295000FFF7FCF9012211469007FFF712F9012158
:102960008807FFF7F3F81FBD0EB501210220FEF71F
:1029700046F801210420FEF735F8B320ADF8040035
:10298000C720ADF800000020ADF80600ADF8020049
:1029900069464C48FEF77EFD01214A48FFF79CFB43
:1029A00000214848FFF7D2F9012211464548FFF7B8
:1029B000E8F801214348FFF7C9F80EBD08B5252006
:1029C0008DF8000000208DF8010001208DF8020034
:1029D0008DF803006846FEF772FA1C208DF800009F
:1029E00000208DF8010001208DF802008DF8030011
:1029F0006846FEF764FA1D208DF8000000208DF86F
:102A0000010001208DF802008DF803006846FEF7F2
:102A100056FA08BD0246002002E000231354401C71
:102A20008842FAD370470246002002E00023135484
:102A3000401C8842FAD3704770B504460D462946BB
:102A40002046FEF76FF900BF80212046FEF7D8F937
:102A50000028F9D070BD70B506460C46002500BFB1
:102A6000615D3046FFF7E8FF6D1C605D0028F7D11F
:102A700070BD10B50020144988800870891D0E486B
:102A8000FFF7E9FFC8211048801DFFF7C3FF14209E
:102A9000FFF70CFE10BD2DE9F04107460D46164626
:102AA000002400BF295D3846FFF7C6FF641CB4420E
:102AB000F8D3BDE8F0810000004400400008014068
:102AC00000380140000400407C040020F94880697F
:102AD00040F00800F7498861F748006820F07F401F
:102AE000F54908600846006840F0EE400860F2488A
:102AF0000C30006840F48070EF490C31086070477A
:102B000010B50120ED490860ED48D0F82C0110B94E
:102B10000120091F08600120FFF7E4FD0020E749BC
:102B20000860E748D0F82C0110B10120FFF7DAFD6A
:102B30000020E249091F086010BD10B50020DF49E0
:102B4000091F0860DE49C1F89C010120FFF7CAFD9A
:102B50000120DA49091F0860D949C1F89C01FFF733
:102B6000C1FD10BD70B50446002517E004F08000DB
:102B700018B10120D149086002E00020CF49086067
:102B80000120CE49091F0860FFF7ACFD0020CC49A9
:102B9000C1F898016006040E681CC5B2082DE5DB7B
:102BA0000120C6490860C649C1F89801FFF79AFD9F
:102BB0000020C249091F086070BD10B50446FFF728
:102BC0009FFF7820FFF7CEFF4020FFF7CBFF204686
:102BD000FFF7C8FFFFF7B1FF10BD10B50446FFF7C0
:102BE0008FFF7820FFF7BEFF0020FFF7BBFF2046D6
:102BF000FFF7B8FFFFF7A1FF10BD70B504460D4603
:102C000005F1B001C8B2FFF7E8FF102141EA141046
:102C1000FFF7E3FF04F00F0141F00100FFF7DDFFD4
:102C200070BD70B50646002415E004F1B001C8B2CD
:102C3000FFF7D3FF0120FFF7D0FF1020FFF7CDFFF4
:102C4000002504E03046FFF7B8FF681CC5B2802DB0
:102C5000F8DB601CC4B2082CE7DB70BD70B5002443
:102C600015E004F1B001C8B2FFF7B7FF0120FFF78C
:102C7000B4FF1020FFF7B1FF002504E00020FFF7AC
:102C80009CFF681CC5B2802DF8DB601CC4B2082C08
:102C9000E7DB70BD10B58D20FFF79FFF1020FFF719
:102CA0009CFFAE20FFF799FF10BD10B58D20FFF7F8
:102CB00094FF1420FFF791FFAF20FFF78EFF10BDA8
:102CC00010B54FF4FA70FFF7F1FCAE20FFF785FF67
:102CD0000020FFF782FF1020FFF77FFF4020FFF763
:102CE0007CFF8120FFF779FFCF20FFF776FFA1203F
:102CF000FFF773FFC820FFF770FFA620FFF76DFFF7
:102D0000A820FFF76AFF3F20FFF767FFD320FFF7F8
:102D100064FF0020FFF761FFD520FFF75EFF8020F2
:102D2000FFF75BFFD920FFF758FFF120FFF755FFB2
:102D3000DA20FFF752FF1220FFF74FFFDB20FFF7EB
:102D40004CFF4020FFF749FF2020FFF746FF0220FD
:102D5000FFF743FF8D20FFF740FF1420FFF73DFFF3
:102D6000A420FFF73AFFA620FFF737FFAF20FFF7B9
:102D700034FF0020FFF755FF00210846FFF73DFF15
:102D800010BD2DE9F0470446884615464FF000096E
:102D90000026002720E0E85D203800F0FF097E2CA7
:102DA00004DD002408F1010000F0FF084146204640
:102DB000FFF723FF002609E009EB4901414A02EB36
:102DC0004101885DFFF7F9FE701CC6B2062EF3DBE9
:102DD000A01DC4B2781CC7B2E85D0028DBD1BDE8F5
:102DE000F0872DE9F04706460F469046002500245F
:102DF000A14631E018F809002038C5B2782E02DD6E
:102E00000026781CC7B239463046FFF7F6FE00248C
:102E100007E004EB05112C4A505CFFF7CEFE601C66
:102E2000C4B2082CF5DB781CC1B23046FFF7E5FED2
:102E3000002408E004EB05110831234A505CFFF739
:102E4000BCFE601CC4B2082CF4DB06F10800C6B25C
:102E500009F1010000F0FF0918F809000028C9D1A4
:102E6000BDE8F0872DE9F04180460E461746002464
:102E70007D0131464046FFF7C0FE00BF06E0134922
:102E8000485DFFF79AFE6D1C601CC4B2102CF6DB87
:102E9000701CC1B24046FFF7B0FE002406E00B49AB
:102EA000485DFFF78AFE6D1C601CC4B2102CF6DB77
:102EB000BDE8F08100100240000C01409C812142DD
:102EC00000802142CA400008F2420008CA3C0008C3
:102ED0002DE9F05F06460F4690461C46DDF828A017
:102EE0004FF0000BE11704EB5171C910A4EBC101C5
:102EF00031B92046E11704EB5171C1F3C70506E073
:102F00002046E11704EB5171C910491CCDB23D4672
:102F100014E029463046FFF770FEB1460AE05946F4
:102F20000BF1010B1AF80100FFF747FE09F1010050
:102F300000F0FF09C145F2DB681CC5B2A542E8DB21
:102F4000BDE8F09F2DE9F04104460D464FF4FA76B6
:102F5000204600F0BBFD07463A4621465048FFF7A1
:102F60009AFD11E04F48007801280AD129464D48C2
:102F7000801D00F099FD20B1FFF77BFD0020BDE82A
:102F8000F0810120FFF792FB301EA6F10106E9D186
:102F9000FFF76FFD0120F2E700B58BB042A143A01F
:102FA000FFF7D0FF40A144A0FFF7CCFF3EA144A013
:102FB000FFF7C8FF464B474A47A101A800F05EFC57
:102FC00039A101A8FFF7BEFF37A147A0FFF7BAFF5D
:102FD00035A14CA0FFF7B6FF33A14FA0FFF7B2FF1A
:102FE00031A15AA0FFF7AEFF2FA15DA0FFF7AAFF06
:102FF0000BB000BD10B504465FA12948FFF72BFDBB
:1030000021462748FFF727FD61A12548FFF723FD4B
:103010001420FFF74BFB10BD70B55FA12148801D48
:1030200000F042FD0546002D38D062A11D48801DEC
:1030300000F03AFD0546002405E0601C285C5E496E
:103040000855601CC4B2082CF7DB5B480078532895
:1030500024D159484078302803D1002057490870BE
:1030600002E00120554908705348807830386421C7
:1030700048435149C978303901EB810100EB4101E6
:103080004D480079303808444C49C8800846C0880B
:10309000B0F57A7F02DB40F2E730C88070BD0000F7
:1030A000003801407C0400206F6B000041542B521B
:1030B00053540D0A0000000041540D0A00000000A6
:1030C00041542B524154453D393630300D0A0000F1
:1030D000140400200004002041542B41503D25736E
:1030E0002C25730D0A00000041542B4445564943DA
:1030F0004549443D61717773647235323834370D18
:103100000A00000041542B4B454550414C4956455F
:103110003D3132300D0A000041542B4D515454437F
:103120004C4F55443D3131312E3232392E38322E0A
:1031300039322C36313631332C61646D696E2C7026
:10314000617373776F72640D0A00000041542B475E
:103150005345525645525354415455530D0A00009D
:1031600041542B5355423D736C6465762F31323395
:103170003435362C300D0A0041542B5055423D73E6
:103180006C6170702F3132333435362C0000000002
:103190002C300D0A0000000041542B524543544F7F
:1031A0005049433D736C6465762F31323334353684
:1031B000000000002C000000180600202804002059
:1031C00030B589B005460C460121C802FDF70AFC5E
:1031D00001210420FDF706FC4FF48070ADF82000BB
:1031E00018208DF8230003208DF8220008A9184824
:1031F000FDF72EFFADF81850ADF814400020ADF8E3
:103200001A00ADF8160005A91248FEF743F9702020
:10321000ADF804000120ADF806000020ADF80A006A
:10322000ADF80C0001A90B48FEF771F9012109481E
:10323000FEF798FC08210748FEF7B8FD0121054874
:10324000FEF784FD01210348FEF780FC09B030BD84
:1032500000080140002C014008B501210420FDF7C1
:10326000C1FB04208DF8030003208DF8020010201C
:10327000ADF8000069460248FDF7EAFE08BD00000F
:10328000000801401FB501210520FDF7ABFB02201E
:10329000ADF80C0004208DF80F0003A98F48FDF74E
:1032A000D7FE01210020FDF7E9FF02200190002058
:1032B0008DF808000C208DF8090001208DF80A0017
:1032C00001A8FFF757F94FF4A060FDF7F3FD0720C1
:1032D0008DF8000001208DF8010004208DF8020017
:1032E00001208DF803006846FDF7E9FD1FBD10B50C
:1032F000002408E0FA2C01DB204610BD601CC4B29B
:103300001420FFF7EFF902217448FDF734FF00287D
:10331000F0D12046F1E770B50024002500260220F8
:10332000FFF78EF9002838D035E002216B48FDF711
:1033300022FF01282FD1FFF7DAFF0446FA2C00DB29
:103340002AE0C82C03DBFA2C01DA012518E00A2C4C
:1033500003DB322C01DA002612E0322C03DB642C72
:1033600001DA01260CE0642C0ADBC82C08DC012001
:103370005B4908705B480078401C5A4908700BE0B4
:10338000012D08D158480068400057490860084698
:10339000006830440860C8E700BF0220FFF761F909
:1033A00070BD51480068000E504908704E480068D2
:1033B000000C4F4908704C480068000A4D490870DD
:1033C000494800684C4908704848007868B948483E
:1033D0000078FF2809D108460078C043C0B24549AB
:1033E0000978884201D1012070470020FCE710B520
:1033F0003B48007800286FD0FFF7D3FF00286BD040
:103400003C48007838282ED004DC10281AD0182820
:103410005BD104E04A2847D05A2856D131E0002039
:103420002F4908703548C088B0F5617F05DA334808
:10343000C08864303149C88003E040F2E7302F494A
:10344000C88048E00020264908702C48C0886428BD
:1034500005DB2A48C08864382849C88002E000207B
:103460002649C88037E000201D49087023480078AD
:1034700018B901202149087002E000201F49087096
:1034800029E00020164908701C48C088B0F5617F0B
:1034900005DA1A48C08864301849C88003E040F251
:1034A000E7301649C88016E000200D49087013481F
:1034B000C088642805DB1148C08864380F49C8807B
:1034C00002E000200D49C88005E00A4801780CA000
:1034D00000F0C8F900BF00BF10BD000000080140A7
:1034E00050040020510400204C040020520400200D
:1034F0005304002054040020550400202804002018
:103500000D0A20BCFCC2EBCAAEBDF8D6C6A3BA25D4
:1035100064200D0A0000000000B587B001214FF4BF
:103520000170FDF75FFA4FF40040FDF7BFF901208D
:10353000ADF8040000208DF8070001A93E48FDF712
:1035400087FD3E48FEF7E0FD002002908DF80C005C
:103550008DF80D004FF460200490002005908DF848
:10356000180002A93548FEF7F6FD01213348FEF7A1
:103570001EFE3248FEF73DFE00BF3048FEF73EFE1D
:103580000028FAD12D48FEF743FE00BF2B48FEF776
:1035900044FE0028FAD107B000BD10B50446072349
:1035A000012221462548FEF76EFE01212348FEF741
:1035B0003EFE00BF02212148FEF7AAFF0028F9D0F5
:1035C0001E48FEF7C7FE10BD2DE9F35F0D4600262D
:1035D00000BF00BF00BF00BFB346B2460AE000987C
:1035E000FFF7DBFF06440520FFF760F80AF1010052
:1035F00000F0FF0AAA45F2DBB6FBF5F707EB870000
:1036000080001121B0FBF1F8642008FB00F9C9F338
:103610000F34112C02DA4FF0000B08E0752C02DD9C
:103620004FF0640B03E0A4F111001FFA80FBCBF113
:10363000640080B2BDE8FC9F000801400024014006
:103640000CB50020019000906C48006840F4803078
:103650006A49086000BF6948006800F400300090C3
:103660000198401C0190009818B90198B0F5A06F1E
:10367000F1D16248006800F4003010B101200090E0
:1036800001E0002000900098012843D15C480068C8
:1036900040F010005A4908600846006820F0030016
:1036A00008600846006840F002000860534840681F
:1036B000524948600846406848600846406840F4FF
:1036C000806048600846406820F47C1048600846E6
:1036D000406840F4E81048600846006840F0807098
:1036E000086000BF4548006800F000700028F9D06D
:1036F0004248406820F0030040494860084640685E
:1037000040F00200486000BF3C48406800F00C00F8
:103710000828F9D10CBD10B5FFF792FF10BD10B508
:103720003648006840F001003449086008464068A7
:103730003449084031494860084600683249084029
:103740002E4908600846006820F48020086008467A
:10375000406820F4FE0048604FF41F008860FFF7C7
:10376000DAFF4FF000602949086010BD10B5002154
:1037700000200022214B5B6803F00C0121B10429D9
:1037800006D0082928D107E0214B224C236027E0EE
:103790001F4B204C236023E0184B5B6803F4701030
:1037A000164B5B6803F48032022303EB904022B98E
:1037B000194B4343174C23600DE0104B5B6803F437
:1037C000003323B1144B4343124C236003E0104BEE
:1037D0004343104C236003E00D4B0E4C236000BFAD
:1037E00000BF064B5B68C3F303130C4CE15C094B51
:1037F0001B68CB40074C236010BD00000010024046
:10380000002002400000FFF8FFFFF6FE08ED00E098
:1038100000127A005804002000093D005C040020DA
:103820000948804709480047FEE7FEE7FEE7FEE754
:10383000FEE7FEE7FEE7FEE7FEE7FEE70448054990
:10384000054A064B704700001F370008ED000008CE
:10385000B0060020B00C0020B0080020B008002006
:10386000704700000FB4044910B503AA029800F095
:10387000DDF910BC5DF814FB480400200FB41CB542
:10388000074B06AA7B4469460090059800F09FF913
:103890000020694600F0AEF91CBC5DF814FB000086
:1038A0006D03000070B50C460546012A05D0287846
:1038B000800600D5EA69002302E0012305E05B1CD5
:1038C000934202D2E05C0028F9D1A869E618C01A38
:1038D000A861286A184428622846AFF3008004E0F3
:1038E000D5E9012114F8010B9047B442F8D32846DA
:1038F000AFF3008070BD00002DE9F04106460024C2
:1039000010687529314616A510D0AFF30080002845
:1039100002DA404213A507E031688A0701D512A5F3
:1039200002E0490704D511A5012401E0AFF30080AE
:1039300000210A2206F1240709E0B0FBF2FCB0FBEB
:10394000F2F302FB1C00303078541846491C002862
:10395000F3D123462A463046BDE8F04100F0D9B8FD
:10396000000000002D0000002B00000020000000DF
:103970002DE9F05F894604464FF0000ADFF824B1D4
:10398000FB44C0F820A02046E168884700287DD08D
:10399000252806D0D4E901219047206A401C2062E6
:1039A000F1E700255F462046E16888472028064663
:1039B00007DB312E05D2B81910F8200C08B10543E9
:1039C000F1E7A80701D525F00405C4F81CA00027DD
:1039D000C4F818A02A2E09D0304600F06FF938B389
:1039E00004EB8708303EC8F8186019E059F8041B4A
:1039F000204604EB87029161E1688847012F064663
:103A000018D1E069002820DA25F020051DE0D8F85B
:103A1000180000EB800006EB40003038C8F81800B2
:103A20002046E1688847064600F048F90028EED1B4
:103A3000012F0AD02E2E08D12046E16888477F1C2E
:103A40000646022F45F02005C4DBA069002803DAF2
:103A5000404245F00105A061E80701D025F01005BE
:103A6000A6B1A6F14100192802D8203645F4006518
:103A70004A463146204625604D46FCF791FB60B131
:103A8000012807D0ED1D25F0070000E007E000F158
:103A9000080978E705F1040975E730467AE7206AF6
:103AA000BDE8F09F5E0F000030B505460B462A4684
:103AB00013F8014B12F8010B08B1A042F8D01CB169
:103AC000002802D06D1CF1E7284630BD10B5431C1C
:103AD00002E010F8011B71B18107FAD14FF00132F9
:103AE00002C88C1A8C4314EAC211F9D0C01A0A0613
:103AF00003D0C01E10BDC01A10BD0A0401D0801E24
:103B000010BD0902FCD0401E10BD704770477047C1
:103B100070472DE9F0470D4699469246044600F15C
:103B200024080168880604D5E06921F010012160AD
:103B300000E00120A84201DD471B00E00027A16949
:103B40007A1902EB0900081AA0612078C00602D495
:103B50002046AFF30080002608E0D4E901211AF8DE
:103B600006009047206A401C761C20624E45F4DB1C
:103B70002078C0060AD52046AFF3008006E0D4E9DD
:103B8000012130209047206A401C2062381EA7F196
:103B90000107F4DC07E0D4E9012118F8050090479B
:103BA000206A401C2062281EA5F10105F3DC204696
:103BB000AFF300802078000602D50220BDE8F08730
:103BC0000120FBE701694A1C02610878704700B5D3
:103BD0008FB0CDE901310021059105497944CDE946
:103BE000031011466846FFF7C3FE0FB000BD00008A
:103BF000E5FFFFFF0A6802F8010B0A60704710B585
:103C0000436913B1AFF3008001E0FFF74BFE0120E1
:103C100010BD127800F124010A7000224A700122BE
:103C2000EDE711684FF0FF32E9E70000074B70B590
:103C30000D467B44FFF7CBFF0446284600F008F80A
:103C400010B14FF0FF3070BD204670BD61EBFFFF3B
:103C5000007B00F080007047754600F02BF8AE4600
:103C600005006946534620F00700854618B020B588
:103C7000FFF7E4FDBDE820404FF000064FF00007DD
:103C80004FF000084FF0000B21F00701AC46ACE804
:103C9000C009ACE8C009ACE8C009ACE8C0098D4671
:103CA000704710B50446AFF300802046BDE81040D1
:103CB000FCF78BBA004870474C06002030380A28C1
:103CC00001D201207047002070470000FC044484AA
:103CD0000425C604040404E4040040300F404041BD
:103CE0004E404063504C43404000807000FF0850FD
:103CF00020100C23CC1020404000000000FF0000EA
:103D000001091121D10D030000000000FE8A4A2A9A
:103D10000A4A4A4AFA4A4A4E400040300F0804FE16
:103D200081824E5223524A8680004040407C40406F
:103D3000407F444444444440400000007F40504899
:103D4000444344485040FF00000000FC44444442C7
:103D50004200FC04040404FC0000001F10100808CA
:103D60000800FF00081008070000040404049F4432
:103D7000241424449F0404040400020201017E82EE
:103D8000828292A29E81F1020200040484C4AF9454
:103D900084848484AFC484040400000000FC444490
:103DA0004444444444FC01000000000000000000C2
:103DB0000000000000000000000000000000000003
:103DC00000000000000000000000000000E0000013
:103DD00000FF0000002040800000080403000040B5
:103DE000807F0000000000010E00101010FF1090F6
:103DF00000FC0404040404FC00000444827F01006D
:103E0000007F20202020207F00008080FC807F48D1
:103E100048007F90888482E0000044442424140CED
:103E200004FF040C1424244444000000FC949494E3
:103E300094F51614F494949C800040300F202424B0
:103E400024FF0000FF242424200000008040300FC5
:103E5000080808C838000000000080814040201099
:103E60000804030C1020408080000002020202823D
:103E700042F20E4282020202000010080402010017
:103E800000FF00000001020C000080828282FE829E
:103E900082828282FE8282828000008040300F0017
:103EA00000000000FF000000000000000000000013
:103EB0000000000000000000000000000000000002
:103EC0000000000000000000000040445454D4549E
:103ED000745F5454D4545444400004040201FE92CC
:103EE00092929292FE01020404002010E8242724FA
:103EF00024E424342C20E000000000003F42424231
:103F0000424342424242434078001060028C002407
:103F1000242FE42424E42F24240004047E0100FF41
:103F200011090719090749917F0000FE02424ACA98
:103F30004A4ACA4A4A4202FE000000FF40504C432F
:103F400040404F50505C40FF000000001011161020
:103F500010F0101014131000000081814141211154
:103F60000D030D11214141818100000202020282F4
:103F700042F20E4282020202000010080402010016
:103F800000FF00000001020C0000008060F807083C
:103F9000080809FA080808080000010000FF40416D
:103FA0004141417F4141414140000000000000008B
:103FB0000000000000000000000000000000000001
:103FC00000000000000000000000808080808080F1
:103FD0008080808080808080800000000000000061
:103FE000000000000000000000001010D0FF901042
:103FF00008888888FF8888880800040300FF0083F9
:104000008040432C1028468180002030AC6320186B
:1040100000040404FC0404040000226722121212AB
:10402000404040407F40404040008084444424144D
:104030000CFF0C14244444848000000000FE424223
:104040004242424242FE0000000000007C404040EC
:1040500040FF40404040FC000000007C40404040A9
:10406000407F4040404040FC00002020FF20204492
:104070005464447F44645444400010301F080800D6
:10408000FF415D555D41FF00000000080828C80899
:1040900008FF080888680808000021211111090597
:1040A00003FF030509111121210000000000000099
:1040B0000000000000000000000000000000000000
:1040C00000000000000000000000000000000000F0
:1040D0000000002F000000000700070000147F14FC
:1040E0007F1400242A7F2A120062640813230036FA
:1040F0004955225000000503000000001C22410029
:10410000000041221C000014083E08140008083E6C
:104110000808000000A06000000808080808000067
:1041200060600000002010080402003E5149453E36
:104130000000427F40000042615149460021414554
:104140004B31001814127F10002745454539003CBB
:104150004A49493000017109050300364949493689
:1041600000064949291E0000363600000000563678
:10417000000000081422410000141414141400005C
:104180004122140800020151090600324959513EEA
:10419000007C1211127C007F49494936003E4141A2
:1041A0004122007F4141221C007F49494941007F53
:1041B00009090901003E4149497A007F0808087F42
:1041C0000000417F4100002040413F01007F081472
:1041D0002241007F40404040007F020C027F007F70
:1041E0000408107F003E4141413E007F0909090655
:1041F000003E4151215E007F091929460046494988
:1042000049310001017F0101003F4040403F001F54
:104210002040201F003F4038403F006314081463D3
:1042200000070870080700615149454300007F41BD
:10423000410000552A552A55000041417F000004E5
:10424000020102040040404040400000010204001E
:10425000002054545478007F484444380038444483
:10426000442000384444487F00385454541800080F
:104270007E0901020018A4A4A47C007F080404782D
:104280000000447D4000004080847D00007F1028B5
:1042900044000000417F4000007C04180478007C4A
:1042A0000804047800384444443800FC24242418CA
:1042B0000018242418FC007C080404080048545406
:1042C000542000043F444020003C4040207C001C1F
:1042D0002040201C003C4030403C00442810284432
:1042E000001CA0A0A07C004464544C44141414147A
:1042F0001414000000000000000000000000000096
:104300000000000000F80000000000000033300052
:10431000000000100C06100C060000000000000059
:10432000000040C07840C0784000043F04043F04CF
:104330000400007088FC08300000001820FF211ED7
:104340000000F008F000E018000000211C031E210E
:104350001E0000F00888700000001E212324192789
:10436000211010160E0000000000000000000000E8
:104370000000000000E01804020000000007182000
:10438000400000020418E000000000402018070070
:104390000000404080F0804040000202010F010216
:1043A0000200000000F0000000000101011F0101F7
:1043B0000100000000000000000080B0700000005C
:1043C00000000000000000000000000101010101E8
:1043D000010100000000000000000030300000007B
:1043E0000000000000008060180400601806010052
:1043F000000000E010080810E000000F102020105E
:104400000F00001010F8000000000020203F2020C6
:10441000000000700808088870000030282422215D
:104420003000003008888848300000182020201113
:104430000E000000C02010F8000000070424243FF4
:10444000240000F80888880808000019212020119D
:104450000E0000E0108888180000000F11202011C5
:104460000E0000380808C83808000000003F0000AF
:1044700000000070880808887000001C222121229A
:104480001C0000E010080810E0000000312222119A
:104490000F00000000C0C00000000000003030002D
:1044A00000000000008000000000000080600000AC
:1044B00000000000804020100800000102040810E5
:1044C00020004040404040404000040404040404F4
:1044D00004000008102040800000002010080402A2
:1044E0000100007048080808F000000000303601A4
:1044F0000000C030C828E810E00007182724231463
:104500000B000000C038E0000000203C230202271E
:10451000382008F8888888700000203F202020116B
:104520000E00C030080808083800071820202010A6
:10453000080008F808080810E000203F202020109C
:104540000F0008F88888E8081000203F202023206A
:10455000180008F88888E8081000203F20000300B1
:104560000000C03008080838000007182020221E6C
:10457000020008F808000008F808203F2101012186
:104580003F20000808F8080800000020203F2020F5
:10459000000000000808F8080800C08080807F0044
:1045A000000008F888C028180800203F200126389D
:1045B000200008F8080000000000203F20202020F4
:1045C000300008F8F800F8F80800203F003F003FEE
:1045D000200008F830C00008F808203F2000071825
:1045E0003F00E01008080810E0000F102020201005
:1045F0000F0008F808080808F000203F2101010119
:104600000000E01008080810E0000F1824243850BB
:104610004F0008F8888888887000203F2000030C2D
:104620003020007088080808380000382021212236
:104630001C00180808F8080818000000203F200097
:10464000000008F808000008F808001F20202020BB
:104650001F000878880000C83808000007380E01DD
:104660000000F80800F80008F800033C0700073CC9
:104670000300081868808068180820302C03032C79
:1046800030200838C800C83808000000203F20004B
:10469000000010080808C83808002038262120200B
:1046A0001800000000FE020202000000007F4040EF
:1046B0004000000C30C0000000000000000106387F
:1046C000C00000020202FE000000004040407F00E7
:1046D00000000000040202020400000000000000CC
:1046E00000000000000000000000808080808080CA
:1046F00080800002020400000000000000000000B2
:104700000000000080808080000000192422222206
:104710003F2008F8008080000000003F1120201199
:104720000E000000008080800000000E112020207C
:104730001100000000808088F800000E1120201079
:104740003F200000808080800000001F2222222263
:104750001300008080F0888888180020203F2020E7
:1047600000000000808080808000006B949494930F
:10477000600008F8008080800000203F21000020B9
:104780003F2000809898000000000020203F20205B
:104790000000000000809898000000C08080807FAA
:1047A000000008F8000080808000203F24022D30A7
:1047B0002000000808F8000000000020203F202012
:1047C00000008080808080808000203F20003F208B
:1047D000003F8080008080800000203F210000207A
:1047E0003F200000808080800000001F20202020CB
:1047F0001F00808000808000000080FFA120201129
:104800000E000000008080808000000E112020A09B
:10481000FF80808080008080800020203F21200059
:104820000100000080808080800000332424242444
:104830001900008080E0808000000000001F202020
:1048400000008080000000808000001F20202010D9
:104850003F20808080000080808000010E300806AC
:10486000010080800080008080800F300C030C30BD
:104870000F0000808000808080000020312E0E31EB
:104880002000808080000080808080818E701806EB
:10489000010000808080808080000021302C222157
:1048A000300000000000807C020200000000003F99
:1048B000404000000000FF00000000000000FF007A
:1048C00000000002027C800000000040403F000029
:1048D00000000006010102020404000000000000C4
:1048E00000000400000800000000000000020001B9
:1048F0000000100014490008000000206C040000B3
:1049000028010008584A00086C04002044080000F0
:104910008401000811100A03050911FF118905C35C
:1049200012E012F072F8073D4428FF11AA44700B00
:10493000830138448292927401831E7C44C7017DB6
:1049400001990562FF9A0102818A010B01366941D2
:104950009949FA0101A12A4001212A6D01212A6009
:1049600001791501642ADB010915072ADA01212AD8
:10497000D801212AC0010915072A800101352A061C
:10498000010918071CE66620076A86157A861C2A24
:104990008601180A80808686068686C0C00C0E1C9A
:1049A0000606D030764D2907013113601C12FE1324
:1049B00001021009C41820029E63B20E1DFF8181FE
:1049C000FFF24440300F12FF180923EAAABFAAEAF7
:1049D000033F0B012DBC808080080115240E0C08BC
:1049E0002A01013149041D81808081021901B91712
:1049F00006110101090C0E0A14C0012178081E21BC
:104A0000404050215E08012A4DFFFFC1C104092327
:104A10002D101680FCF3EFF3FC80FF80EEEEEEF538
:104A2000FBFF9CBEB6B688FFB00A434D43432D47FB
:104A300048504E00091879376E32717279612D0134
:104A4000020304040009150607080902040608AC5D
:084A5000A24A0430292C0000E9
:04000005080000ED02
:00000001FF
